:020000041000EA
:1000000000B5324B212058609868022188439860DF
:10001000D860186158612E4B002199600221596106
:100020000121F02299502B49196001219960352056
:1000300000F044F80222904214D00621196600F024
:1000400034F8196E01211966002018661A6600F04E
:100050002CF8196E196E196E052000F02FF8012189
:100060000842F9D1002199601B49196000215960AB
:100070001A491B48016001219960EB211966A021F2
:10008000196600F012F800219960164914480160C1
:100090000121996001BC002800D000471248134993
:1000A000086003C880F30888084703B5996A0420EC
:1000B0000142FBD001200142F8D103BD02B5186610
:1000C0001866FFF7F2FF186E186E02BD00000240BE
:1000D000000000180000070000035F00212200005C
:1000E000F4000018222000A00001001008ED00E03C
:1000F00000000000000000000000000074B24E7A12
:1001000000200420F7010010C3010010C5010010F9
:10011000C1010010C1010010C1010010C101001097
:10012000C1010010C1010010C1010010C701001081
:10013000C1010010C1010010C9010010CB01001065
:10014000CD010010CD010010CD010010CD01001037
:10015000CD010010CD010010CD010010CD01001027
:10016000CD010010CD010010CD010010CD01001017
:10017000CD010010CD010010CD010010CD01001007
:10018000CD010010CD010010CD010010CD010010F7
:10019000CD010010CD010010CD010010CD010010E7
:1001A000CD010010CD010010CD010010CD010010D7
:1001B000CD010010CD010010CD010010CD010010C7
:1001C00000BE00BE00BE00BE00BE00BEEFF3058054
:1001D000103800BEF2EB8871DC0B0510040C051022
:1001E0003402001090A31AE700201F49086006C8D7
:1001F00081F3088810471D48006800282FD10DA4FE
:100200000ECC002902D000F012F8F9E71849194A7B
:10021000002000E001C19142FCD1174988471749ED
:1002200088471749884700BEFDE701C901C29A42C5
:10023000FBD37047040C0510C000002038120020CA
:100240007C1D051000000420000004207C1D05100A
:10025000001004200010042000000000704709482E
:1002600000F090FE0047000008ED00E0000000D024
:1002700058120020ACD90020B52B011055030010F6
:10028000A92C01105756000006005250ABB3605322
:100290006809051006005250861C030278090510F3
:1002A000060052505422A29D8009051005005250AC
:1002B000DE65F4687C1D0510F8B5C0460448054BA2
:1002C00010B5834203D0044B002B00D0984710BDDB
:1002D00038120020381200200000000006480749AC
:1002E000091A8B10C90FC91810B5491003D0044B57
:1002F000002B00D0984710BD381200203812002083
:100300000000000010B5074C2378002B09D1FFF73F
:10031000D5FF054B002B02D0044800E000BF0123AD
:10032000237010BDB014002000000000A87301105D
:10033000054B10B5002B03D00449054800E000BF71
:10034000FFF7CCFF10BDC04600000000B414002031
:10035000A873011010B582B014F0C6FD17480DF057
:10036000A7FD002825D1164814F010FD0DF044FD1E
:10037000144B154A154916480DF04CFD041E13D1B7
:10038000144814F003FDFF21134A144BD0580314F2
:1003900002120B400A40014000160090104814F071
:1003A00097FD200002B010BD0E4814F0EFFC0124B0
:1003B000F7E70D4814F0EAFC0124F2E74742000099
:1003C000C07301101027000004004000A810002096
:1003D000B4100020E0730110901B0020E80800001A
:1003E000EC730110CC730110A873011010B507F065
:1003F00071FE10BD0123F0B50B7283B0040007F04D
:100400009DFE0500431C0DD11249134B1A685B6811
:10041000009201938A60CB60236820005B69984753
:1004200003B0F0BD01F03AFFFA2206000F000023EE
:1004300028000021920014F0E9FA36184F41002FED
:1004400003DB04498E60CF60E6E70126034F764266
:10045000F7E7C046D810002048740110FFFFFF7F67
:1004600070B5094D04002B78002B08D001230749F3
:1004700020000B722368DB699847012070BD02F0F1
:10048000B1FA01232B70F1E79AD90020C4100020A3
:1004900010B50400036804499B699847236820004D
:1004A0001B6A0249984710BDD8100020C4100020D4
:1004B000002070477047C04610B501F0EFFE0029DC
:1004C00005D0FA220023920013F066FF10BDFA2136
:1004D000890013F023FFF9E7020083680832002B3C
:1004E00004D107E01A001B68002B03D09942F9D110
:1004F000002003E00023012011600B607047C0461C
:100500008368002B08D0994202D107E0994207D0B6
:100510001A001B68002BF9D1002070470200083236
:100520000B6801201360F8E74368021D002B04D11B
:1005300007E01A001B68002B03D09942F9D1002074
:1005400003E00023012011600B6070474368002B1B
:1005500008D0994202D107E0994206D01A001B68E0
:10056000002BF9D100207047021D0B680120136099
:10057000F9E7C046F8B54746CE468368804680B561
:10058000002B29D008234344994601F087FE4346B7
:100590009E6804000D00002E58D000234F469C4654
:1005A000B268F36820002900801A9941002902DB13
:1005B00014001D00BC4637003668002EF0D163469B
:1005C000002B43D0196840460A681A604B68984768
:1005D00043469B68002BD8D143465C68002C31D041
:1005E0000025237A002B29D021006368257240461C
:1005F00098472468002CF4D1174B18685968434673
:100600009E68002E04D112E020002900002E0ED09A
:10061000330002009C68DD680B00121BAB4136689A
:10062000002BF1DCF2D1002AEED1002EF0D14346AE
:1006300018615961C0BCB946B046F8BD2468002CA9
:10064000CFD1D9E7044B18685968F0E743465C6896
:10065000002CC5D1D0E7C04648740110024B186881
:100660008007C00F7047C04600C00640104A114BBB
:1006700010B512184B419900900F0843990F504044
:1006800059400D4A0D4B14F0C1F903004A01C00E48
:100690001043CA0E58405140094B0A4A14F0B6F9AB
:1006A00003004A00C00F1043CA0F5840514010BD0C
:1006B000157C4A7FB979379EB9E5E41C6D4758BF70
:1006C000BB49D094EB113113F0B5046845680600BE
:1006D00023002A00C6468068F16803430A4300B538
:1006E000134304D101F0DAFD03000B43FAD02A06CC
:1006F000230A6040270613432A0A3A43070CBC46E4
:1007000069404B40984663460F041F434240030430
:100710005A4043467B4032607360C20E4B01134324
:10072000C90E40010843B360A10FAB000B43A20008
:10073000A4185D41EB01620E1A43E4016B0E2343E2
:10074000F0601E0017005B0FD100F0001943801904
:10075000794180BCB846F0BDF0B5DE4657464E46FE
:100760004546E0B5B84B8DB01B78002B00D1ECE0CE
:1007700008AB9846B54BB64C0393B64BB64F0493B3
:1007800010220499404614F09DF9B44B1B78DBB25B
:10079000059301F083FDFFF769FF089B584043462E
:1007A0005B680890594043465960AD4B9B69DB0438
:1007B00000D5C0E012F094FAEFF305839B46B946EA
:1007C0005F46A84B256866689A4628003100002FCE
:1007D0001AD001F097FDEFF3108272B653461B68F2
:1007E000002BFBD0BFF35F8F2368AB420FD0BFF36A
:1007F0005F8F00215346196082F310882568666870
:1008000028003100002FE4D101F0F8FBE3E7636832
:10081000B342ECD10125924B1600D8694F460540F2
:1008200001F03CFD0A22002380185941002900DA1A
:100830007DE03A687B6892185B4120606160280027
:100840001C00130010430093019438607C60BFF3D8
:100850005F8F0024834A146086F310880199FFF7A4
:1008600005FF43469B68804A58404346DB689446F0
:10087000594043469860D960039B7C4A1B78DB0053
:100880006344986890425ED00021FFF7EFFE089B1A
:10089000584043465B680890594043465960EFF31F
:1008A000108572B66F4A1368002BFCD0BFF35F8FC0
:1008B0006A4B059A1B78934219D0049940460B68FD
:1008C00040681A00089B5A40089242464B684340D1
:1008D00053608B6800934346009A9B685A40CB68EC
:1008E0004146C96800934B4041468A60CB60404610
:1008F000FFF7EAFE102206000C000498414614F0AF
:10090000E1F8564B554A1B780133DBB21370BFF345
:100910005F8F0022534B1A6085F31088300021004E
:100920000DB0F0BCBB46B246A946A046F0BD0120C2
:100930004F4940427DE74F4BDA6BE0231340402B99
:1009400000D039E736E79C609EE74B4B9946186824
:1009500059684A4B9C464A4B9846830E8F011F4369
:100960008601030C0D041D4332003B0004041219E0
:100970006B41121A8B41614601C98C4600210090DF
:1009800001910098019980185941C445E5D14B4621
:1009900018605960FFF76AFE08AB9846089B5840FC
:1009A00043465B6808905940434606A8596000F0EA
:1009B00021F906980799FFF759FE43469B6858406E
:1009C0004346DB68594043469860D960244B9B6995
:1009D000DB0436D5274BDA6BE0231340402B30D0B5
:1009E000EFF305839A4640230024039300231D4F11
:1009F00000930194164C00239B4653462568666875
:100A000028003100002B19D001F07CFCEFF3108995
:100A100072B63B68002BFCD0BFF35F8F2368AB42FC
:100A200030D0BFF35F8F5B463B6089F3108853463D
:100A30002568666828003100002BE5D101F0DEFA58
:100A4000E4E712F04DF9CBE7A4D9002095D90020B6
:100A5000A8130020401200205012002096D9002038
:100A600000000640300100D000000340FFFFFF00FF
:100A7000FFFFFF7F0080004038120020001C042090
:100A8000002004206368B342CBD1009A019B100080
:100A9000190080185941484BDA6901231340034378
:100AA0000093019101F0FAFB0A22002380185941BA
:100AB000002949DB039B20606160012B3AD100983B
:100AC00001993E4F38607960BFF35F8F00233C4D42
:100AD0002B6089F31088FFF7C9FD089B58404346F7
:100AE0005B68089059404346596001F0D7FBFFF717
:100AF000BDFD43469B6858404346DB68594043462A
:100B00009860D960EFF3108672B62B68002BFCD08A
:100B1000BFF35F8F2B4B1B78002B19D02A4B03930D
:100B20002A4B0493BFF35F8F0022254B1A6086F394
:100B3000108825E6BFF35F8F00233B6089F31088A0
:100B4000039B013B039356E7012021494042B1E753
:100B5000204BDA681F2A23D05A691F2A22D0DA696B
:100B60001F2A25D05B6A1F2B1FD012F0B9F8FF2275
:100B7000FF231549DB000A70174A039194460522AA
:100B800063445A604046FFF79FFD104B1022180047
:100B90004146049313F096FF01230A4A1370C1E7FC
:100BA00000230393039BDAB2E3E71C3B0393F9E7CB
:100BB00002230393F6E7C0460000064050120020CF
:100BC000300100D0A4D9002095D900204012002087
:100BD000FFFFFF7F000003400800034010B5FFF750
:100BE000BBFD10BD10B5024800F0E0F810BDC046D6
:100BF0000CD8002010B50822014913F063FF10BD86
:100C00000CD8002030B54B1E012900D1A7E0664A60
:100C100011780D112C0030349F2900D9A2E0047006
:100C2000012B00D1BEE00F21147821400C0030349C
:100C3000092900DD98E04470022B00D1B2E054781D
:100C40002511290030319F2C00D990E08170032BB1
:100C500000D1A7E00F2121400C003034092900DD2C
:100C600087E0C470042B00D19CE094782511290002
:100C700030319F2C00D97FE00171052B00D191E02C
:100C80000F2121400C003034092900DD76E0447149
:100C9000062B00D186E0D4782511290030319F2C15
:100CA00000D96EE08171072B00D17BE00F2121403C
:100CB0000C003034092966DCC471082B00D171E0C6
:100CC00014792511290030319F2C5FD80172092B2E
:100CD00068D00F2121400C003034092958DC4472BF
:100CE0000A2B5FD054792511290030319F2C52D81E
:100CF00081720B2B56D00F2121400C003034092972
:100D00004BDCC4720C2B4DD0947925112900303165
:100D10009F2C00D9073101730D2B43D00F212140A7
:100D20000C003034092901DD37310C0044730E2BDF
:100D300038D0D1790C11220030329F2900D90732E6
:100D400082730F2B2ED00F220A4011003731092A4F
:100D500001DC30321100C173102B23D0103000237E
:100D6000037030BD07345AE737310C0063E70731B1
:100D70006CE737310C0074E707317DE737310C0041
:100D800085E707318EE737310C0095E707319DE79E
:100D900037310C00A3E70731AAE737310C00C472E2
:100DA0000C2BB1D1C018DAE70CD8002030B50025E3
:100DB00089B004000922002101A8009513F07CFEEF
:100DC0000922002105A8049513F076FE4B236A46FC
:100DD0006846137004A90D2216F04EFA1521082258
:100DE0002000694413F06EFE09B030BDEFF31080AF
:100DF00072B6034A1368002BFCD0BFF35F8F7047B5
:100E00002C0100D0BFF35F8F0022024B1A6080F3E9
:100E1000108870472C0100D070B5EFF3108C72B6BB
:100E20000D4D2B68002BFCD0BFF35F8F0724CB0840
:100E3000C618C05C01230C40A3401C0004400342C0
:100E400007D103433370BFF35F8F2C608CF310889E
:100E500070BD100011F02CFF2C0100D0F8B54746F2
:100E6000CE46884680B5EFF3108C72B6214D2C68C3
:100E7000002CFCD0BFF35F8F9A422CD8D4080727F0
:100E8000055D061901241740BC402C421FD00721E4
:100E90000127894609E0D408055D06194C4639004A
:100EA0001440A1400C00294211D001329342F2D2E9
:100EB00001204042BFF35F8F00220E4B1A608CF37B
:100EC000108800280FDBC0BCB946B046F8BD2C43E3
:100ED00010003470EEE7BFF35F8F00232B608CF3BC
:100EE0001088012040424346002BECD0089811F0B6
:100EF000DFFEC0462C0100D030B5EFF3108C72B687
:100F00000A4C2368002BFCD0BFF35F8F072301221C
:100F1000CD0819408A40435D93434355BFF35F8F2B
:100F2000002323608CF3108830BDC0462C0100D014
:100F30000021044B044ABFF35F8F02C39342FAD1EE
:100F40007047C046000100D0800100D0044A1078EC
:100F5000431CDBB2172B00D9102313707047C04617
:100F6000F010002000B5054B83B00100009318225B
:100F70001F230348FFF772FF03B000BD0C7401107C
:100F8000541B0020142310B50100188804331B885B
:100F9000984710BD162310B50100188802331B882E
:100FA000984710BDF8B54746CE4680B50F1E19D0FC
:100FB00014239946043304000025012698464B4625
:100FC0001888434621681B88984701C4431E9841EE
:100FD000013540420640AF42F1D13000C0BCB946B5
:100FE000B046F8BD0126F8E730B50C2083B001F01B
:100FF00091FCFFF733FB00280ED0994B994A1A60F9
:101000005A609A60DA601A615A619A61DA611A620A
:10101000954A5A6203B030BD944CA06701F0CEFCF3
:101020000122934B1A60636C012BFCD10322914B7C
:101030001A608E4A936B012BFCD1013301218E4A39
:101040008E480093043301F015FC05238C4A00936D
:1010500001218C4801F00EFC8B4B5A68FF2A02D804
:10106000802252005A6080227D4C824B21691201FD
:10107000854D1A60002907D0606913F04FF9431CB1
:101080005800C0180338FDD2E0217F4B02201A68B7
:101090001140802252012A431160196848400321FF
:1010A0000140116004219A681142FCD08022802105
:1010B00092012A4309011160802252005A60734B49
:1010C0002361734B5968FF2900D85A600321684A8D
:1010D0006F4B116002399A681142FCD0E0201A6807
:1010E0001040802252011A431060186848400321C2
:1010F00001400220116066498A681042FCD08022BB
:1011000092011343802212011A608022614B520027
:101110004A606361604B5968FF2900D85A60802299
:101120005E4BE16912015C4D1A60002907D06069CD
:1011300013F0F4F8431C5800C0180338FDD2E02225
:1011400055490B681A4080235B012B431A608023AA
:1011500080229B012B4312011A608022414B5200D6
:101160004A60E3614E4B5968FF2900D85A608022DB
:101170004C4B216A12014A4D1A60002907D0606960
:1011800013F0CCF8431C5800C0180338FDD2E022FD
:1011900043490B681A4080235B012B431A6080236C
:1011A00080229B012B4312011A60802380225B0066
:1011B0004B602C4BD20223623B4B5968914200D2C8
:1011C0005A608022394B616A1201374D1A6000293A
:1011D00007D0606913F0A2F8431C5800C018033808
:1011E000FDD2E02230490B681A4080235B012B437B
:1011F0001A60802380229B012B4312011A608023F6
:10120000DB024B60184B6362294B5A68FF2A02D8F5
:10121000802252005A608022264BA1691201244D7F
:101220001A60002907D0606913F078F8431C580051
:10123000C0180338FDD2E0221D490B681A408023F4
:101240005B012B431A60802380229B012B431201F8
:101250001A6080235B004B600E4BA361DAE6C04648
:10126000581B0020006CDC021BB70000008000400F
:101270003CB0004030B00040002F68590080024070
:10128000008C864700C0024030800040001BB70041
:101290003C800040405973075480004054B00040E7
:1012A0006080004060B000406C8000406CB0004046
:1012B0004880004048B00040014B8000C058704753
:1012C000581B0020094A830094464022634410B50D
:1012D0001C68C0006240C0241440802252011343A5
:1012E0001C60034B9C466044416010BD04C001403B
:1012F000004001400A4B80009C46042360440029C2
:1013000001D00C230821002A00D10B0002685340B1
:101310000C221A4080235B01184302607047C046CC
:1013200004C00140084B80009C466044002905D061
:1013300080239B011843022303607047C0239B0155
:10134000184302230360F8E704C00140D0231B06C2
:101350001B6830B50500581E83410F485C42844627
:1013600007203023284023408000EC0881402000E3
:101370000A4D3C3063448000A40041511B19002AEF
:1013800004D0802292011343196030BDC022920123
:1013900013431960F9E7C046004101400040014095
:1013A000D023F0B5C64604001B0698461B680C4FB8
:1013B0009B00F8580D00160000B5044209D1044303
:1013C00032002900FC500D2000F09CF880BCB8468B
:1013D000F0BD11F085FC43461B689B00F858EEE712
:1013E000F8D7002010B504000D2000F07FF9D023BD
:1013F0001B061B6802499B005A58A2435A5010BD55
:10140000F8D700200123D022834012069362936113
:10141000094A83009446402263441968C0004A4048
:10142000C02111408022520113431960034B9C4696
:10143000052360444360704704C001400040014000
:1014400001238340002904D0034A1360034A136038
:101450007047034A1360FBE780E200E000E100E030
:1014600080E100E001238340014A13607047C046D9
:1014700000E200E0084B10309B688000C358002B4E
:1014800007D0064A00209B1A2F229A424041C0B240
:1014900070470020FCE7C04600ED00E0F41000209B
:1014A000024B10309B688000C058704700ED00E090
:1014B00070B50D00EFF3108672B60F4A1368002B5B
:1014C000FCD0BFF35F8F0D4B10309B6884001B591D
:1014D0000B4A934203D09D4201D011F001FC074B0F
:1014E0009B681D51BFF35F8FBFF35F8F0022024BDC
:1014F0001A6086F3108870BD240100D000ED00E072
:10150000CD010010F0B557464E46DE464546E0B5E3
:1015100085B0060002911700EFF3108B72B6674A90
:101520001368002BFCD0BFF35F8F0025644B5D5721
:101530009A46002D00DAA4E06B00624C03935B191D
:101540009B009846A146C1444B4652469B791036B3
:1015500013705D4BB2009B68019299580B1B2F2BA7
:1015600034D95A4B994200D0A4E0039B584A9C4678
:10157000584B6544AD006353434602336519E41884
:10158000554B0121043B1B1B1B055B0D13436B805B
:10159000524BEF71AB80FF23AB71029BAB604B46AC
:1015A0000B431900484B019A9B689950BFF35F8F1A
:1015B000BFF35F8F0022414B1A608BF3108805B098
:1015C000F0BCBB46B246A946A046F0BD01200A00C9
:1015D0008243D379BB422FD845464E46130040493B
:1015E0001B1B5B415943090D3A4B63533A4B023580
:1015F0006519043B5B1B1B05354D5B0D2B4373804D
:101600000426B446E0444444131F1B1B4C46A171FE
:1016100002991B05A16049465B0D2B43A380314B0A
:10162000E77101431360BDE75800C018800020181F
:10163000C679BE422BD902000623D356002BF3DA1B
:10164000101D82462848804604267642B446E1446E
:1016500050464E46361A3005400D824656461C48C6
:10166000957106439680039A944665441D4AAD00E1
:10167000641922604246A371029BA280E771A360B5
:1016800090E711F02DFB002553465D5754E7101DE0
:10169000824690884005001584464046D4446646FC
:1016A00004302018301AE0260005400D3602304381
:1016B0008046C9E711F014FB57E7C046240100D06B
:1016C0009DD90020F410002000ED00E0CD010010B5
:1016D00000E0FFFF00A1FFFF2411002001BDFFFF7C
:1016E000AAAA00000148804701BD0000F0B5DE460F
:1016F00057464E464546E0B50C0083B0EFF31089DF
:1017000072B6584A1368002BFCD0BFF35F8F564B5C
:101710009A68030010339F00D559544A9046954269
:1017200032D0A54243D0524EAA1B2F2A2CD80122D8
:101730008240924651464F4A1268114001915146EB
:101740004D4A1160BFF35F8FEFF305829346002A85
:1017500033D101232A009A4393689C4208D177E051
:101760004B005B189B00F3189968A1422AD01A001D
:10177000062151560029F3DA019B002B19D052465D
:101780003E4B1A603B4B1A60374B9B68DD51BFF3F1
:101790005F8FBFF35F8F0022324B1A6089F310888E
:1017A00003B0F0BCBB46B246A946A046F0BD15004A
:1017B000EAE75246304B1A60E6E79342C9D011F08F
:1017C0008FFAC6E706215956002921DB4A00501836
:1017D000800034188046A0689860E079D8710620AF
:1017E00020569871002824DBA488F01A640524157B
:1017F00044440019E0240005400D24022043988051
:1018000052181F4B9200B6181A781970B271B3E7CC
:10181000594600290FD1FF3191711A499180184919
:101820000A789A71184A9B1B5B415A43120D0A7041
:10183000A2E71648E3E7164A1649D21A083A5002B8
:10184000400D01439980144952080A43DA8093E716
:101850000621515613000029B8DA5A46002AEAD167
:101860004546DCE7240100D000ED00E0CD0100108A
:10187000F410002000E100E080E100E080E200E000
:101880009DD9002001BDFFFFAAAA000001BD0000F4
:101890002E11002000F0FFFF00F8FFFF032310B51A
:1018A0000400074A18409446C0009C43FC33834020
:1018B0006444226881409A4313000B43236010BDA7
:1018C00000E400E070B5EFF3058101240443EFF379
:1018D000108C72B6214A1368002BFCD0BFF35F8FC7
:1018E0001F4B05001F4AED1A6D416A43120D1E4D34
:1018F0008900AE6852B27658A6421CD006215956CD
:1019000091421CD012215956914222D01E21595683
:10191000914220D02A2159560324914210D0134BD2
:1019200019781A708171BFF35F8F00220B4B1A6018
:101930008CF3108870BDAB680D4C5C50EFE7002451
:101940006100091989005B18FF2199710949998083
:10195000E5E70124F4E70224F2E7C046240100D0C1
:10196000F4100020AAAA000000ED00E09DD900209C
:10197000CD01001001BDFFFF054B064A1360064A6A
:10198000136053609360D360136153619361704738
:101990008080808000E400E004E400E01F2110B5B6
:1019A000091A0248FFF7A8FA10BDC046A9D90020BD
:1019B00000B5074B83B001000093002205230548C2
:1019C000FFF74CFA002801DB1F23181A03B000BDF3
:1019D00028740110A9D9002070B504000E0015006C
:1019E000FFF7B4FA0100200000F006F8A680E580B9
:1019F000BFF35F8F70BDC046024B9C4661448900B7
:101A0000016070474000003410B50400FFF79EFAF3
:101A100001002000FFF7F0FFFF232371BFF35F8F6A
:101A200010BDC04610B50400FFF790FA0100200079
:101A3000FFF7E2FFFF23A380BFF35F8F10BDC04617
:101A400010B504000120FFF78DFA044B9C4660445A
:101A500080002060BFF35F8F10BDC046400000349F
:101A6000034B9C46614489000160BFF35F8F704760
:101A70004000003483680B4810B5844661446244DA
:101A8000090112019A18591854684B6801209C42A8
:101A900001D802D00020C0B210BD12680B689A4273
:101AA000F9D8F7E7FFFFFF0F0A4B1968EFF3108033
:101AB00072B60A68002AFCD0BFF35F8F1B68BFF3C1
:101AC0005F8F00221A6080F3108840BF0020002141
:101AD0007047C0461CD90020F8B557464E464546CB
:101AE000DE46E0B599460CAB1C780DAB1B780600C2
:101AF00090469A460768002C11D1BC7B002C42D03E
:101B000065003B682D19033D59194B78BB73002BB9
:101B100000D1FB7300238B704B700B7004E06500E9
:101B20003B682D19033D5919B2682A4B9446424629
:101B3000E3181B0163441A604A465A600A9A9A6085
:101B40000B9ADA6000238B704B700B707B7B9B468B
:101B5000002B2BD022005946B8687B6898473A681A
:101B6000002816D05B4658465B005B445519033B82
:101B7000A870D118D35C002B00D06B705B460C7042
:101B80007B73A34513D0F0BCBB46B246A946A04622
:101B9000F8BD5B465B005B44033BD3189C70511956
:101BA000525D002A00D05A705B460B707C7342462F
:101BB0004B46307D00F0FCFB051E06D05346002B43
:101BC00003D12100306800F017FE0E9B002BDAD005
:101BD0001D70D8E7FFFFFF0FF0B5DE4657464E46B3
:101BE00045460023E0B58BB00893674B8200D4587C
:101BF00000239B46099000F051FB626806000F002D
:101C0000EFF3108572B61368002BFCD0BFF35F8F23
:101C100023689C465B7B9946002B00D169E0A26853
:101C20005A4B90464B441B01984443461A685B68E4
:101C300010001900801BB941002900DC63E00998FD
:101C400000F0B6FB0023002298460023069207937B
:101C500000239A466368BFF35F8F5A461A6085F384
:101C600010885346002B08D10028C4D10BB0F0BC1B
:101C7000BB46B246A946A046F0BD089B41461802A5
:101C80004B461843D047626806000F00EFF31085FB
:101C900072B61368002BFCD0BFF35F8F002F50DBB0
:101CA00033003B4302D02369002B61D12368D97BE9
:101CB000002907D04A00521819688C4649466244E8
:101CC000033A51709A7B002A01D14A469A734A46D8
:101CD000DA734B46E168013BCA5C0132CA545B4689
:101CE00023616368BFF35F8F5A461A6085F31088DB
:101CF00081E70023002298460023069207930023E1
:101D000000209A46A6E7002902D1002800D096E7D5
:101D10000021604600F0EEFC43461A685B680692BC
:101D2000079343469B689A464346DB689846E368B8
:101D30004B44013B1B7808931B02034323610020A3
:101D400088E72369002BB1D0069A079B921BBB4101
:101D5000002B15DB5946049101210391494602915C
:101D600041460191514620000091FFF7B5FEB6E7CC
:101D700000F094FA32003B0012184B41002BE9DAD4
:101D80000122034B5242E5E72CC80020FFFFFF0F62
:101D9000FFFFFF7F10B5144C6368002B04D00A21AD
:101DA0001248FFF729FE10BD2300114A10212068B8
:101DB00000F0BAFB032000F065FA032000F062FB9C
:101DC00003200C4900F0AEFAFFF7C0F80A4B9C461E
:101DD00003232375D0231B061B6860446375074BE0
:101DE00080006060DC60DAE73C1100201CD9002034
:101DF000751A0010D91B0010400000342CC80020B8
:101E0000004870473C110020F0B54E464546DE467E
:101E10005746E0B585B0019310AB1B7806000393DD
:101E200000239946984600927268EFF3108B72B6C1
:101E30001368002BFCD0BFF35F8F3568AC7B002CA0
:101E40003DD067002B683F19033FDB195A78AA730E
:101E5000002A00D1EA73B168474A8C46009801997C
:101E6000A21812016244106051600E9991600F999E
:101E7000D16042469A705A701A706B7B9A46002B5A
:101E800067D022001900A8686B6898472A68002864
:101E900052D0534650465B005344D719033BB870A9
:101EA000D118D35C002B00D07B7053460C706B7341
:101EB00054454FD0F3681B19013B187800E000200F
:101EC0007368BFF35F8F42461A608BF31088002C53
:101ED0004FD04B46002B08D10002204305B0F0BC88
:101EE000BB46B246A946A046F0BD039B002B3ED0A0
:101EF0000E9B00200F999847030004000D000B4330
:101F000035D000290ADA009A019B121BAB410092DE
:101F10000193002B0ADB039B994685E700F0BEF98D
:101F200024184D4100940195002DF4DA0123134C3F
:101F30005B4200930194EEE753465B005344033B3E
:101F4000D3189C70D119D25D002A00D05A70534624
:101F50000B706C73307D009A019B00F029FA81466A
:101F60000028A7D02100306800F046FCA2E700203E
:101F7000B4E701204042B1E7FFFFFF0FFFFFFF7F03
:101F800070B50400002933D04268EFF3108572B6B3
:101F90001368002BFCD0BFF35F8F2068CEB2437B69
:101FA000B34216D0FF230B405A00D3180268944660
:101FB0006344033B9B78002B0BD12269914219D0DB
:101FC00000206368BFF35F8F00221A6085F31088DA
:101FD00070BDFF230A0A0B40E168D2B28C4663440D
:101FE000013B19789142EBD1310000F005FCE8E7A4
:101FF0000020EDE72361E3E7407D7047F0B5040082
:102000000D0006267642F717C64636196F4100B511
:1020100084B08F4214D811D000F040F932003B0058
:10202000121A8B41002B15DC002B3ED0200029001A
:1020300000F068F904B080BCB846F0BD8642EBD928
:102040000026002700F02AF932003B00121A8B41CB
:10205000002BE9DD002302930193154B320000931E
:1020600014483B00FFF7D0FE0028DFDB0023984632
:10207000BC46114A114F7B6A9C4504D8B96A8E420E
:10208000D4D99C45D2D11168EFF3108072B60B6899
:10209000002BFCD0BFF35F8F1368BFF35F8F414607
:1020A000196080F3108820BFE5E7002ABED0D1E791
:1020B000A91A00103C1100201CD900200040054046
:1020C00070B5060000F0EAF8FA2204000D000023C3
:1020D00030000021920012F099FC0019694100299A
:1020E00002DBFFF78BFF70BD012001494042F8E79A
:1020F000FFFFFF7FF0B5EFF30583CE46474680B57F
:1021000005000C0085B0002B12D02C4A0020536A29
:102110009C4203D8926A0130AA4204D305B0C0BCE5
:10212000B946B046F0BDE01A421E9041C0B2F5E794
:10213000234E02930193234B0200009330000B00C7
:10214000FFF762FE031EE0DD20BF7168EFF310872A
:1021500072B60A68002AFCD0BFF35F8FDAB29446E9
:102160003068427B62451DD0FF221A4051008946EB
:1021700001689144884649464144033989780029D9
:1021800013D0F1681B0A88464244013A1278DBB248
:102190009A420FD07368BFF35F8F00221A6087F3F3
:1021A0001088B2E7FF221A40EBE732699342F1D17F
:1021B0003161EFE7614600F01FFBEBE700400540AF
:1021C0003C110020A91A0010F0B5EFF30582D646A5
:1021D0004F4646461000C0B51038EFF3108872B66F
:1021E000214C2368002BFCD0BFF35F8F0123190023
:1021F00081401E4D1F006963AA461D4D29601D4D7B
:102200002E78AC463500C5402F402B4209D1BFF394
:102210005F8F276088F31088E0BCBA46B146A846B5
:10222000F0BD5346144D5F6A83005D59AF420ED333
:10223000124A8E439B5862461670BFF35F8F00228E
:10224000226088F31088002BE6D09847E4E70C4B17
:1022500092009C46624413681360BFF35F8F0023B3
:10226000236088F31088D7E7280100D0004005409C
:102270003C700540A8D9002028D900201C19002056
:10228000D03F054010B50100024A0348FEF7C4FDE7
:1022900010BDC0465074011097D90020034B596AF5
:1022A0000A00986A596A8A42FAD17047004005408C
:1022B00070B504000D00124A536A1900966A536AF9
:1022C0008B42FAD13000190024184D41AB4211D88D
:1022D0000ED02B000A494A6A9A42FCD307D1084A19
:1022E00002E0516A994202D1916AA142F9D370BDCC
:1022F000A642EED9012301246442E5175B42E9E7D7
:1023000000400540064A536A9942FCD807D1044B65
:1023100002E05A6A914202D19A6A8242F9D3704726
:102320000040054070B504000D00EFF3108672B652
:102330001A4A1368002BFCD0BFF35F8F002D1BD00F
:102340002000FFF7ADF8164981420AD02000FFF7C0
:10235000AFF801212000FFF773F80123A340114AD1
:102360001360114BA400E550BFF35F8F00220B4BAD
:102370001A6086F3108870BD0B4BA200D550012265
:10238000A2400A4920000B7893430B700449FFF7E1
:10239000ADF900212000FFF753F8E5E7280100D050
:1023A000C9210010386005401C190020A8D9002060
:1023B000F0B54F46D6464646C0B507002C4C616A7C
:1023C0000D00A66A616AA942FAD18B4208D805D0ED
:1023D0000120E0BCBA46B146A846F0BDB242F7D9EA
:1023E000EFF3108A72B6234801680029FCD0BFF3CE
:1023F0005F8F0125BD4020491D4C884609788946DC
:102400002943C9B28C46414660460870391D1B48B5
:10241000890065630A51B9000B50216A00202942E6
:1024200019D0616A0800A66A616A8142FAD18B42BA
:1024300019D801D1B24216D8CC4516D00C4B1F206A
:102440001D625D6301230740BB400D4A1E381360C7
:1024500043464A461A70BFF35F8F0022054B1A604D
:102460008AF31088B5E70020F5E70120F3E7C046BE
:1024700000400540280100D0A8D9002028D900201C
:1024800080E200E0EFF3108C72B60A490B68002B73
:10249000FCD0BFF35F8F01238340074A07481362D4
:1024A00002789A430270BFF35F8F00230B608CF3B6
:1024B00010887047280100D000400540A8D90020AE
:1024C00070B5050014001600002915D00C00002A74
:1024D00012D080686B689847296800280ED0730076
:1024E0009B196200033B1219CB18033A9C708818A1
:1024F0008A5C002A15D10670200070BD63001B198C
:102500007200033B9219CB18033A9E7088188A5CBC
:10251000002A02D104703400EEE75A7004703400CF
:10252000EAE75A700670E7E730B583600023CCB263
:1025300043730133047342608373C4730D000068F6
:10254000012C06D9421C0133DBB2137003329C42CA
:10255000F9D1FF2129404B005918002340180338B6
:10256000437030BDF8B5CE46474606000C0080B536
:10257000002907D04D0003686D18033D5A1957789C
:10258000002F04D12000C0BCB946B046F8BD790088
:10259000C91903398846434459788946002159703E
:1025A000517073683A0021008068984733680028AA
:1025B00014D042469A18947059195B5D002B00D0D4
:1025C00053700F70270049463000FFF7CBFF3900EA
:1025D00002003000FFF774FF0400D3E74246414693
:1025E0005D19AF709A185B5C002B00D06B70147093
:1025F000E9E7C046F0B557464546DE464E46E0B5EB
:102600000D006B0001685B19DF1E0400C85D83B01C
:102610000192CA19002850D043001B18033BCB1865
:102620005E78B446002E1AD1019E002E42D0E67B81
:10263000002E04D073009B19CB18033B5D70A37B65
:10264000002B00D1A573E57300282FD10023537010
:1026500003B0F0BCBB46B246A946A046F0BD72002E
:102660006244033A89184A78904600224A7091469B
:102670005A70010032002000FFF722FF43468246D5
:10268000002B07D05B0021684344033BCB185A78EA
:10269000002A16D1424651462000FFF711FF21685B
:1026A000019BCA19002BC2D10028CFD043001B18B0
:1026B000033BCB1800219970C8E7019B002BB6D1D2
:1026C000C4E7500080180338091848788346484604
:1026D0004870587041462000FFF7F2FE5946804688
:1026E0002000FFF73FFF414602002000FFF7E8FE11
:1026F0008046CFE7F0B557464546DE464E46E0B544
:1027000083B00191457B04006B0000685B19DF1EFC
:10271000C15DC219002952D04B005B18033BC3189E
:102720005E78B446002E1CD1019E002E44D0E67B7C
:10273000002E04D073009B19C318033B5D70A37B6C
:10274000002B00D1A573E573002931D100232800A7
:102750005370617303B0F0BCBB46B246A946A046B5
:10276000F0BD72006244033A80184278904600221D
:10277000427091465A7020003200FFF7A1FE434696
:102780008246002B07D05B0021684344033BCB18F3
:102790005A78002A17D1424651462000FFF790FE92
:1027A000019B01002068C219002BC0D10029CDD0A7
:1027B0004B005B18033BC31800209870C6E7019BD1
:1027C000002BB4D1C2E750008018033809184878AC
:1027D000834648464870587041462000FFF770FE17
:1027E000594680462000FFF7BDFE4146020020000A
:1027F000FFF766FE8046CEE770B5040000292CD0B6
:10280000437B8B422ED005684800401803382818B7
:102810008278002A21D053009B18033BEA5CEE1813
:102820008A4202D11BE0002A08D053009B18033BC8
:10283000EB185A788A42F6D142785A700023012266
:10284000837043702000FFF7D5FE617B02002000FB
:10285000FFF736FE6073012000E0002070BD437872
:102860003370EBE701221900FFF7C4FE607301200B
:10287000F4E7C046F8B5040021481D0017000E001B
:1028800011F04CFD0100380011F048FD069B2904B1
:102890001B0319432368002B20DB1A4B1A4DE21847
:1028A00053425A4180235B019C461203174B6244FA
:1028B0001A60174B1A601700AB689F43FBD1C02208
:1028C000231D92011A4321232660A0601360236810
:1028D000002BFCDA0823E1601360F8BD3F23226877
:1028E0001340B342D9D1A3681B051B0D8342D4D139
:1028F000EE22E368D20213408B42CED1EDE7C04610
:10290000001BB7000040FDBF00C0004000E00040D9
:1029100000F000408023024A9B000343D3627047CB
:102920000080054010B5140080221B4BD2051A60B0
:1029300000281AD00123194A1843194BDA61194AA1
:1029400042401A62596298628022134BD2051A6083
:102950001549164A1160E022D2041A60002C07D1F2
:102960008022134B12061A6010BD0D4BD861EBE7A5
:1029700063011B1B9A008023121912015B049A4207
:1029800000D30C4A0C4B1A60054B5A608022084B4E
:10299000D2051A60E8E7C04600B00540D3C007B0D2
:1029A000008005402D3FF84FFCFF0100082001404A
:1029B00000A00540FFFFFF00942E0020AA23064A36
:1029C0001B0113602F230549D360054B1960536821
:1029D000002BFCDA7047C0460040024000B0FA000D
:1029E0000060024010B501F0BBFB00F01FFB00F0DF
:1029F000E3FC00F08DFD05F0B5FB01F041FC00F0BB
:102A000057F905F01FFB10BD40BA80B27047C046B1
:102A100000BA7047F8B54746CE4680B507010400B6
:102A20003818000110308146404D414E2B688846D1
:102A3000B144002B02D02A7AA24258D0EB68002B76
:102A400002D02A7DA2424BD0AB69002B03D02022BA
:102A5000AA5CA2423DD06B6A002B03D02C22AA5C58
:102A6000A2422FD03B191B01F318DB7B002C04D0B2
:102A7000B27A022A41D0012C06D08D225200B25CDB
:102A8000022A43D0022C05D02A4AB25C022A43D043
:102A9000032C03D0284AB25C022A42D0032B0DD863
:102AA000264D9B00585905F04BFE00223C1924018D
:102AB0003619F37B9B005A510423F373C0BCB9460B
:102AC000B046F8BD41464846AA6A984700236B6263
:102AD000C8E741464846EA6998470023AB61BAE730
:102AE000414648462A6998470023EB60ACE74846D0
:102AF0006A68984700232B60A0E7F27B9A42BAD11C
:102B000004233C1924013619F373D7E72022FF323E
:102B1000B25C9A42B6D1F3E7094AB25C9A42B7D1A5
:102B2000EEE7084AB25C9A42B8D1E9E7E025002016
:102B3000182600202A0200003A030000D0250020B9
:102B40002F0200003F030000F0B5DE464E46574618
:102B500045468346E0B5030187B04F4A01935B4485
:102B60001B01D618F27A012A00D992E04B49920053
:102B70008C58002C00D17FE010331D00464B9C4642
:102B80006544280014F004FBA022123081B29200A8
:102B9000362000F0CDFE8146002866D003AC0C2222
:102BA0000021200011F088FF3089FFF72DFF01235D
:102BB0002080A3700C22FF3321004846A38001F03F
:102BC00075F9374B0C269A464F46013D6B1C9846CB
:102BD0006B78002445462E2B06D156E06B780134E5
:102BE0000135E4B22E2B01D0002BF7D14346EB1A6E
:102BF0009BB299462300F318534542DC2200310072
:102C0000380001F007FA731C4A469BB2341941465A
:102C1000380001F087F9A3B22A785E1CB6B2002A08
:102C2000D4D11C003100380001F0F4F91D4B0234FE
:102C30000422029302A9A3B2380001F073F9164AE4
:102C4000019B944615495B441B0163448C46DA7A28
:102C5000DB7B15499B0092005858624435233900AC
:102C600005F0F8FC380000F0C5FF07B0F0BCBB462B
:102C7000B246A946A046F0BD0021FFF7CBFEB472D4
:102C8000F3E7380000F0B6FFEFE70022002391469B
:102C9000B1E7064810F00CF8182600201026002096
:102CA000FEFF000000010001D02500207474011017
:102CB0007047C04682B0012801D902B07047800039
:102CC000002903D00A68044BC250F6E7034A024BBE
:102CD00012680192C250F0E710260020148D0110F6
:102CE000F0B546464F46D646464BC0B5464E8D27B4
:102CF0003400002598467F00A37A022B35D02CD8CB
:102D0000002B1FD0414B9946414B9A46FDF766FF79
:102D1000B37A80B2022B40D0F35D022B43D04B46F6
:102D2000F35C022B48D05346F35C022B4DD00223B8
:102D30000122A37200232081E372280022736373AF
:102D4000FFF702FF01351134EDB2FF34042DD3D16A
:102D5000E0BCBA46B146A846F0BD032B4ED123686D
:102D6000002B13D10023A372ECE7237B013BDBB2E2
:102D70002373002BE6D1637B0133DBB26373042B37
:102D800029D023732800FFF7DFFEDBE7013B236038
:102D9000002BD7D10023A372D4E733898342B5D067
:102DA000F35D022BBBD11733FF33F35A8342ADD00F
:102DB0004B46F35C022BB6D18A239B00F35A834225
:102DC000A4D05346F35C022BB1D1CE239B00F35A1F
:102DD0008342ACD19AE7E37A002B08D1424652688D
:102DE000002A04D001226373E2722273CAE7002131
:102DF0002800FFF70FFE0023A372A3E705480FF09A
:102E000057FFC04610260020182600202A02000086
:102E10003A030000A8740110F0B583B06B469C1D06
:102E20000023238001331E000640184205D00029EC
:102E300003DD03780139637001300322130003407E
:102E4000104205D00023012938DD03880239023001
:102E500007294BDD083907220F00974302000500C0
:102E60000832BF182A689A189A429B415B42D218CE
:102E70006B680835D3189342924152429B18AF4277
:102E8000F0D1CA08551CD200ED00891A1A04401965
:102E9000120C1B0C9B18012910DD02889B188A1E3E
:102EA000012A05DD45885B19052901DD81885B184C
:102EB00051084D1C6D0049004019511A012901D1DA
:102EC000027822702288D218130C1204120C9B185C
:102ED000180C1B041B0CC018002E04D003060004A1
:102EE0001B0C000E184380B203B0F0BD1A00D0E7EF
:102EF000F0B54F46D6464646C0B591461A68089B7F
:102F00008A46196804000B041B0C090C5B18110499
:102F1000090C5918130C5B18180C1B041B0CC31854
:102F2000180C1B041F0CC719002C21D0FF230026EE
:102F30000125984661896068FFF76EFFC019030C90
:102F40000004070CDF1963891D4207D042463B0687
:102F5000380A1B0C104003431F006E402468002CED
:102F6000E8D1002E04D03B063F041B0C3F0E1F434C
:102F7000534698B2FFF748FD04004846FFF744FD6A
:102F80002018C019030C0004000C1818030C0004CE
:102F9000000C1818C04380B2E0BCBA46B146A8463F
:102FA000F0BDC04610B582B0049C0094FFF7A0FFAE
:102FB00002B010BD10B5FFF72FFFC04380B210BDA7
:102FC000F0B5C646040000B500282AD0FF2300262D
:102FD00000270125984661896068FFF71DFFC01929
:102FE000030C0004070CDF1963891D4207D0424619
:102FF0003B06380A1B0C104003431F006E40246838
:10300000002CE8D1002E09D03B0638041B0C000E22
:103010001843C04380B280BCB846F0BDF84380B2CC
:10302000F9E70148F7E7C046FFFF000003220A4B1B
:10303000002103339343094A09481360FA2212011D
:1030400019719918016001201A6008710549995099
:10305000054A13607047C04644C800203CC80020A1
:1030600040C80020A00FA00F902E0020F0B5D6463B
:103070004F464646C0B500285DD0830700D069E0C2
:103080000300394A083B12689A4260D837490C302D
:10309000096881425BD31879002861D0FA201D8825
:1030A000000185420CD85C88A246844208D8981A50
:1030B00080B280461619A04205D03088404502D023
:1030C0002B480FF0F5FD5019814202D04488444549
:1030D000F6D100241C71274CA44624689C4202D9D6
:1030E000644623601C00994237D9834213D0077984
:1030F000002F10D181420ED0A04224D005881D801F
:103100000188FA200001814205D0404651184880CC
:1031100059888A465618B3420DD0317900290AD110
:10312000A3420DD0FA2135801B8809018B4202D0C1
:10313000D31852465A80E0BCBA46B146A846F0BD04
:1031400061460E60EEE761461C000B60D6E70A4858
:103150000FF0AEFD09480FF0ABFD09480FF0A8FDD8
:1031600008480FF0A5FDC0463CC8002040C800201C
:1031700030750110902E0020EC740110C8740110FD
:103180006475011008750110F0B5C6463B4BCA1CAA
:1031900000B513400B2B3FD9FA22120193423ED8BF
:1031A00099423CD8364A146884425ED8354A12683F
:1031B00082425AD90500083D291B8AB290462E88C2
:1031C00041463200083A521A92B29A4250D320D065
:1031D000A7193979002924D1FA22120196424AD03E
:1031E0003A88294E9446424608329B1832689BB270
:1031F000BA4237D0E218614611804146002651801C
:10320000FA2116712B80128809018A4201D0A21876
:10321000538080BCB846F0BD0C239942C2D900202F
:10322000F7E71F001437BFB2BA42F2D34246083262
:103230009B18FA229BB2120196421CD0124FE21840
:103240003968914200D93A60414600275180FA21FD
:10325000177116802B80128809018A42D9D0A418D0
:103260006380D6E7E2183260C5E708480FF020FD1A
:1032700007480FF01DFD07480FF01AFDFCFF000086
:103280003CC8002040C80020902E0020807501100E
:1032900098750110B8750110F0B5D6464F464646F0
:1032A000C0B500282FD03D4CC31C1C400B2C30D97E
:1032B000FA231B019C4226D8A04224D8384BFA227C
:1032C0009C461B6812019A46364B121B1E685346D9
:1032D0009B1B98B21B0490461B0C9A4213D90827DB
:1032E0007F4208E01588FB1A5B19A34213D22B001A
:1032F0002800434507D2F21811790029F2D010882E
:1033000003004345F7D30020E0BCBA46B146A846C7
:10331000F0BD0C24D0E71427B846A0444746BFB2FE
:10332000BB421CD2012308341371A4B21E4B18688F
:10333000130092450ED0A418A0422CD310000830E0
:103340009307E1D019480FF0B3FC1B88F3181979E3
:1033500000291AD09842F8D163461860EBE7FA27A3
:103360000834A4B203193F019BB2B946BB420FD047
:10337000F718397101213D807880138011713988E7
:103380004945D3D071184B80D0E761460B60D2E736
:1033900007480FF08DFC07480FF08AFCFCFF000087
:1033A000902E00203CC8002040C80020FC75011071
:1033B000B8750110CC75011024230022F0B54746E2
:1033C000CE469046994603320425944680B5124F66
:1033D000124B134CB94441463A68216061460333AD
:1033E0008B43002D0BD016880021002200E0030043
:1033F00001321960981919002360AA42F7DB0437DB
:10340000B94504D03A68946853685588E3E7C0BC6E
:10341000B946B046F0BDC046F0760110D0BF0020DE
:10342000F8C7002010B5082810D80B4B8000C458EE
:10343000FDF73EF8A3681C68002C03D022681A60D0
:10344000A30705D1FDF736F8200010BD0024FBE7E7
:1034500002480FF02DFCC046F076011040760110B6
:1034600070B50C0008280ED800290CD0084B80003D
:10347000C5588B0708D1FDF71BF8AB681A682260A6
:103480001C60FDF717F870BD02480FF011FCC04634
:10349000F0760110647601100C2040427047C0465F
:1034A00070B505000C00160082B000292AD04368D0
:1034B0000A689A4201D102B070BD3360300001A9A0
:1034C000019201F04FFE300001A905F065F901A954
:1034D000300000F025FE392322686A60E95C343B45
:1034E0000B40052B05D0EB69002BE4D02800984752
:1034F000E1E7002AF7D00B07F5D52800291D09F0D0
:10350000DFF9F0E701480FF0D3FBC0461477011054
:103510007047C046F0B5C64600B504000E0017005F
:10352000984682B000286AD0099B002B67D00029FA
:1035300000D174E0002F00D16FE04346002B69D02A
:103540003F4B002563610022392320006560A560A0
:10355000E56025860021E2542830042211F0ACFAFF
:10356000089BE56163623C232562364D2A78E2546C
:103570000A9B23613368002B3AD13100200001AA55
:10358000FFF78EFF0122A168E0683B68994200D0F6
:10359000A36043461B68984200D0E360002A33D002
:1035A0002000099B9847002829D1274B3C269846A4
:1035B0001F683C23E05C00239C46FF2802D1634641
:1035C0000020A355002F2CD0BC4236D03B00FF2258
:1035D00007E01B68002B24D09C422ED0013A002A21
:1035E0000AD0995D8142F4D10130C0B2A055E4E720
:1035F000002000210022C8E714480FF059FB0020EA
:1036000002B080BCB846F0BD3100200001AAFFF72F
:1036100047FFC5E70E4B984692E70D4F8DE70C4EDE
:1036200088E7FE2807D00130C0B2434628702760E3
:1036300020001C60E4E70020F7E706480FF038FBA5
:1036400099340010A0D9002018C800203877011044
:10365000148D011024770110F0B504000D00160040
:103660001F0083B000294ED0002E4AD0002F46D034
:103670002B680022002B0CD03368A1688B4200D04D
:10368000A3603B68E1688B4230D1002A31D003B09F
:10369000F0BD616801220029EED06846009101A9C1
:1036A000019301F05FFD684601A905F075F801A9D5
:1036B000684600F035FD39232A686260E15C343BDE
:1036C0000B40052B07D1002A05D00B0703D520009E
:1036D000211D09F0F5F8E369002B01D0200098477F
:1036E0003368A16801228B42CBD0C9E7E360002A8E
:1036F000CDD16A4629002000FFF7D2FEC7E7034F6D
:10370000B6E7024EB2E7014DAEE7C046148D011098
:1037100070B5041E16D04368002B17D13922012141
:10372000A35C194224D11D4B1A68A2422ED01C4A18
:103730001368A34204D126E01A68A24203D0130002
:10374000002BF9D170BD22681A60FBE7051D00212E
:10375000280001F007FD0021280005F01DF80021D8
:10376000280000F0DDFC39220121A35C1942DAD0E7
:1037700018008843A0541B070BD4E369002BD2D058
:1037800020009847CFE723681360DBE700221A6028
:10379000CDE7200008F0F2FCEFE7C04614C8002097
:1037A00018C80020014B18607047C04614C800209C
:1037B00070B5041E15D03925435DDA0711D40122F6
:1037C0001343DBB24355C269002A01D09047635DC1
:1037D00005221A40052A04D16268002A01D01B077D
:1037E00000D470BD2000211D09F06AF8F9E7C04639
:1037F00070B5041E03D03925435D5A0700D570BD4E
:1038000004221343435505F07DFF0523625D1340F9
:10381000052B05D0236A002BF1D020009847EEE756
:103820006368002BF6D01307F4D52000211D09F0A2
:1038300047F8EFE710B500280AD039220421835C4D
:10384000194205D08B438354036A002B00D098475C
:1038500010BDC046021E0ED0084B1868002809D0C3
:103860003C2102E00068002804D0435C0133DBB255
:103870009342F7D170470020FCE7C04618C80020EB
:10388000F8B505000026002826D00F270BE0012BF5
:1038900024D0002B2AD12800FFF7E8FB0136F6B22E
:1038A000002C19D02500FCF703FEAC7B002C1AD0AD
:1038B000013CE4B2AC73FCF7FDFD002C0CD12B7B7A
:1038C0002C683B40022BE2D1290008200136FFF78B
:1038D000C7FDF6B2002CE5D13000F8BD2900072065
:1038E000FFF7BEFDDAE703480FF0E2F902480FF0F8
:1038F000DFF9C046687701108077011010B5FCF73A
:10390000D7FD0022084B1A70FCF7D4FD074B18684E
:10391000002803D107E0C068002804D0436F002BC3
:10392000F9D001F06DFC10BDA2D9002038D90020DB
:10393000F0B5C1234F464646D6468046C0B50D0079
:10394000170084B25B009A423FD008D81400433B72
:10395000FF3B9C43012C6AD03C480FF0A9F9A023FF
:103960009B009A42F8D1E31C0324CA1CA343A24340
:103970009B189BB21800103080B293421ED3824233
:103980001CD8FFF789FC061E19D0002303604346AC
:10399000C71813372E4B2904A7430D434760856092
:1039A000C3600CE0FCF784FD01222A4B1A70FCF77F
:1039B00081FD002E02D03000FFF762FF00263000AC
:1039C000E0BCBA46B146A846F0BD00239846224B5B
:1039D00000269A4600230327994607E043466D1ABE
:1039E000ADB21860002DEAD0804600240820FFF711
:1039F00019FD0028D6D05246E31CBB43D31A1A1C2B
:103A00009BB2AB4200D92A1C4B4604190360133405
:103A1000124BBC4391B2446005814281C360002EC9
:103A2000DCD16D1AADB20600002DDDD1C7E707204D
:103A3000FFF7F8FC061EC2D0002329040D430360E3
:103A40004360856007734373C481B8E794770110BE
:103A500080000100A2D90020EC05000082000100D6
:103A600070B5041E34D002898A421CD90D008A1A0E
:103A700007E023896D1A9B1823812468ADB2002CBE
:103A800020D06189A942F4D3237B1B0701D1A9422D
:103A90000AD1290420682943A160002801D0FFF73A
:103AA000EFFE0023236070BD63682000191B6918B6
:103AB00089B2FFF769FB002807D08442E9D00648A5
:103AC0000FF0F6F805480FF0F3F805480FF0F0F89E
:103AD00004480FF0EDF8C046FC770110C8770110DC
:103AE000E0770110B0770110030070B5002820D0F6
:103AF0008022520291421AD2002916D002898CB239
:103B0000A21892B2944212D8057B01207F2D0DD9C4
:103B10005D68691A1D001035A94207D3596059899B
:103B2000002064185C811A8100E0002070BD012033
:103B3000FCE701480FF0BCF81878011010B5002818
:103B400018D080235B02994212D200290ED04389FB
:103B50008AB29A420CD844689B1AA44643810389CE
:103B600061449A1A41600281002010BD0020FCE7E8
:103B70000120FAE701480FF09BF8C04618780110C1
:103B800010B5002915DB00282FD0002923D0038988
:103B90008AB2D3189BB29A4225D8047B7F2C1CD8BA
:103BA0004468611A416041890381521842810020B2
:103BB00010BD002819D0494243898AB29A4212D8CE
:103BC00044689B1AA4464381038961449A1A416060
:103BD00002810020ECE70020EAE74468611A040053
:103BE0001034A142DED20120E2E701480FF060F874
:103BF0001878011010B5002802D0FFF741FE10BD63
:103C000001480FF055F8C046187801100300002055
:103C1000002B04D01B68013080B2002BFAD1704712
:103C200010B5041E09D0FCF743FCA37B0133A3733A
:103C3000FCF740FCA37B002B00D010BD01480FF027
:103C400037F8C0462478011010B5002814D0002998
:103C500012D00368002B07D002890C891219028147
:103C600018001B68002BF7D102894389934204D1C5
:103C70000A8901609B18038110BD01480FF018F8F4
:103C80003878011010B50C0000281FD000291CD076
:103C90000368002B07D0028921895218028118007D
:103CA0001B68002BF7D102894389934214D12289E2
:103CB00004609B180381FCF7FBFBA37B0133A37318
:103CC000FCF7F8FBA37B002B03D010BD0029FCD030
:103CD000F1E703480EF0ECFF02480EF0E9FFC046A2
:103CE0002478011038780110F0B54F46D646464684
:103CF0008146C0B5884692461F00002900D184E065
:103D00000B89934200D280E0002800D17DE0534629
:103D10000289FB189A4200DA77E0002644890CE019
:103D200043465A891B899A423DD04B465C891B8980
:103D30009C424DD05346002B57D043465B89E41B31
:103D40009B1B9C4200D91C005546A24500D925006A
:103D50004B465B682A00D81943465B687F1999195E
:103D600010F0B0FE534676195D1BABB29A464B4637
:103D70005C89BC424CD343465B89B3424BD305D1EB
:103D800043461B6800269846002B17D0BC42C7D17B
:103D90004B461B689946002B1FD043465A891B8906
:103DA00000279A42C1D143461B68002BBDD0062094
:103DB0004042E0BCBA46B146A846F0BD5346002B8F
:103DC00023D1BC4219D04B461B899C420DD1002601
:103DD0004B461B68002BADD0E9E75346002B14D1AE
:103DE00043461A895B899A4201D00020E1E74346A5
:103DF0001B68002BDBD10020DBE74B461B68994694
:103E0000002BF2D000275C89DDE710204042D0E78C
:103E100002480EF04DFF02480EF04AFF687801108C
:103E20008078011010B5002904D000230A89FFF71B
:103E30005BFF10BD10204042FBE7C046F0B5C64610
:103E40000500884616001900002700B5002828D074
:103E50004346002B25D0002A05D122E02D68091BFE
:103E600089B2002D1DD06C89002901D0A142F5D264
:103E7000641AA4B2321CA64200D9221C4346D819A7
:103E80006B6894B29C46361B22006144E719B6B2B7
:103E900010F018FEBFB22D68002E02D00021002DB8
:103EA000E1D1380080BCB846F0BDC046F8B5CE467A
:103EB000474605008846914680B5002824D0002951
:103EC00022D0038993421CD316000027002A02D176
:103ED00012E0002D1BD06C89B44200D93400434657
:103EE0006868D919220010F0EDFD361B2D683F19C6
:103EF000002EEED1B9450DD10020C0BCB946B04668
:103F0000F8BD01204042F8E710204042F5E70348A1
:103F10000EF0CEFE02480EF0CBFEC0469C7801109B
:103F2000B4780110F0B5D6464F46464604008A469E
:103F3000C0B5002805D13AE024685B1B9BB2002C79
:103F400035D065899D42F7D921899F18B9422EDB6A
:103F5000E91A8A4232DD8AB2904662685146D01828
:103F60007D1B424610F0AEFDABB29946002B1CD033
:103F70002568002D29D02B894B4518D34F460026A4
:103F800001E0002D24D06C89BC4200D93C0043469E
:103F9000F11868682200514410F094FD3F1B2D6811
:103FA0003619002FEDD1B14515D1002001E00120D7
:103FB0004042E0BCBA46B146A846F0BD60685146F2
:103FC000C01810F07FFD0020F3E710204042F0E71A
:103FD00002480EF06DFE02480EF06AFE9C78011059
:103FE000B47801100B0070B5150011891A00FFF7A5
:103FF0009FFC041E06D0002329002A89FFF774FEC7
:10400000002801D1200070BD01480EF051FEC046CD
:10401000CC78011005E043898B4205D8C91A0068A5
:1040200089B20028F7D1704743685A54FBE7C0466D
:10403000F0B5DE46454657464E468146E0B5344F1C
:1040400083B03968786909F0A9FD4B465A68314B4D
:1040500080461C689B460020557A002C3AD00026EA
:10406000844604E0E3682600002B32D01C00237C49
:10407000AB42F7D1217A002906D03C237868C35C93
:104080000133DBB29942EDD14346002B29D023689E
:10409000002BE7D10121637C194203D063683969A1
:1040A0008B42DFD163699A46002BDBD0019221005D
:1040B0004A46194BA069D047002819D14B465A6887
:1040C000019B9A4221D102239C46E3682600002BE3
:1040D000CCD1604603B0F0BCBB46B246A946A04670
:1040E000F0BD2368002BD5D079698B42BAD1D1E7D6
:1040F000002E08D0E3680120F3605B461B68E36094
:104100005B461C60E6E70120E4E704480EF0D0FDC2
:10411000742E002000D80020842E0020E0780110AA
:1041200010B5002811D00268002A0ED000290CD04A
:104130000B68002B09D0094B1B68002B05D01C68AD
:10414000944203D0DB68002BF9D110BD0A681A60D5
:10415000DB68002BF9D00268F1E7C04600D80020E8
:104160007047C04610B5041E23D0037D042B05D034
:10417000072B0FD00020032B00D010BD200003F030
:1041800029F800280AD105232375200003F04EFBEF
:104190000020F2E703F01EF8002807D0431CECD102
:1041A0000822638B002013436383E6E7092323750A
:1041B000EBE701480EF07CFD2C79011070B506008C
:1041C000806F002803D0FFF715FD0023B367746FDD
:1041D000002C18D06068256800280CD0FFF70AFD75
:1041E00021000420FFF73CF9002D0AD02C00606864
:1041F00025680028F2D121000420FFF731F9002DB5
:10420000F4D1002373670123F46E5B423386002CE4
:1042100016D06068256800280CD0FFF7EBFC210061
:104220000420FFF71DF9002D0AD02C0060682568D6
:104230000028F2D121000420FFF712F9002DF4D15B
:10424000346F002C16D06068256800280CD0FFF76A
:10425000D1FC21000420FFF703F9002D0AD02C0027
:10426000606825680028F2D121000420FFF7F8F8E3
:10427000002DF4D100236822F3663367B35270BD7A
:1042800010B5FCF7ABFC044B80049C46800C034B40
:104290006044188010BDC04600C0FFFF68110020B8
:1042A00010B5037D0100012B03D00220FFF7D8F8E1
:1042B00010BD01480EF0FCFC38790110F8B5031E62
:1042C0001FD0078DC16A456A5C8E114E781A40195D
:1042D000221CB4420BD892B2821A0CD5491B0CD4C2
:1042E0008022520291420FD200205985F8BD321C23
:1042F00092B2821AF2D45F85F8E7002200205A8534
:10430000F4E704480EF0D4FC03480EF0D1FCC0469C
:10431000D01600004C79011070790110F8B5002812
:104320001DD0037D012B34D0028D1D4B511889B255
:1043300099421BD91900466A458E1A4FC46A0185F5
:10434000F3182A1CBD420BD892B212199A1A11D531
:10435000A41B1BD48022520294421DD24485F8BD76
:104360003A1C92B212199A1AF2D403E08A42E1D8A6
:104370000B00E0E70C4A41851B1B9342EFD9022258
:10438000438B1343438303F051FAE8E7002343854B
:10439000E5E706480EF08CFC05480EF089FCC046A7
:1043A000A02D0000D0160000670B00008C790110D2
:1043B00070790110F0B5DE46454657464E46E0B5E9
:1043C000BF4DC04A2B6887B001332B60BD4B1B78B3
:1043D00001331370BC4B9B465B461C68002C00D11C
:1043E000CCE000230593237D002B00D112E2012BAA
:1043F00000D115E20A2B00D10FE2B24AA17F127858
:10440000914200D158E1A2774222A25C022B00D156
:10441000FDE00B2A00D9F7E0A122A65C002E00D116
:104420005AE1226F002A00D012E2E26E002A00D187
:104430000BE2A222A25C0B2A00D9E5E0A020A34A4D
:104440009619013E3178225C8A4200D28DE16023C8
:10445000E15A002900D0B9E0200003F0F1FC002867
:1044600000D0BFE0A0230022E254A132A35C062BBF
:1044700000D9B7E0012700260133A354237D062B82
:1044800000D1B5E008210800627A10408046114250
:1044900027D0042B00D05EE12B68226AFA219B1AF8
:1044A00099469423E35849009A469823E35898463E
:1044B0009C23E0584346584350440FF02FFF81455A
:1044C00000D93EE1A3274346E05DFA2143431800AB
:1044D000490050440FF022FF00239846814500D93F
:1044E0004AE1676F002F0AD02B68226A9A1A40238C
:1044F000E15E4B005B185B009A4200D305E1237D2F
:10450000032B00D18AE0092B00D0AEE02B68226A91
:104510009B1AF02B00D887E09023E6582000FFF785
:104520004DFE059B002B00D1ADE05B461B68A3420E
:1045300000D17EE1059BE268DA604346002B00D0A3
:10454000ADE023699946E3689846237D012B00D1AD
:104550006CE121000220FEF783FF00235C4C2370F6
:10456000002E07D00D2148464942B0472378002B42
:1045700000D031E74446002C00D034E7554F0024EA
:104580003968002904D11AE00C00C968002916D046
:104590000B7D0A2B00D046E12B680A6A9B1AF02B90
:1045A000F2D9002C00D1DAE03B688B4200D143E124
:1045B000CE68E6600220FEF753FF311EE8D107B057
:1045C000F0BCBB46B246A946A046F0BD200002F0B2
:1045D0001FFD002800D045E7200003F027F9002840
:1045E00000D03FE7237D01270026062B00D049E7B6
:1045F000638BDB0605D52B68226A9B1A282B00D912
:104600003E00002398466CE70227012637E7052A7B
:1046100000D801E700230126984662E72B68226A4A
:104620009B1A282B00D977E7002E00D074E7237F50
:10463000627F0133DBB2E66823779A4212D8002307
:10464000234A237713708C33E358002B00D17CE08E
:104650002100206998471E4B1B78002B00D0BBE639
:10466000002872D00594340085E7002EDFD0902218
:10467000A658012B00D854E70A2B00D04EE7059B23
:10468000002B00D051E75B461B68A34200D0D9E065
:104690005B46E2681A604346002B00D151E7238B4A
:1046A000626A216D0293E38A20000193231D009327
:1046B000230002F085FF44E70594E4685BE7C04609
:1046C00048D90020A7D9002038D90020107D01103A
:1046D000A5D900204CD900203022A15E5E48228E50
:1046E000824202D8013211B221864022A25E012705
:1046F0008A4200DDC3E6200002F094FE002848D084
:10470000236F002B42D0237DB9E67868A1463C6830
:1047100000280CD0FFF76EFA39000420FEF7A0FE47
:10472000002C0AD0270078683C680028F2D13900B4
:104730000420FEF795FE002CF4D14C46002363675D
:10474000DDE601233E009846CBE6200003F06EF83C
:10475000059434000FE7072B00D19DE651E73B6835
:104760008B426CD1CE683E6024E70132D2B2225433
:104770008A4200D237E76AE6200003F0F1FA002807
:1047800000D0AEE6E35D0133E355AAE6E36E002B0D
:10479000B9D0237D022B13D03C22A35E3E21625E62
:1047A000DB109B184222A15C0A1C0C2929D82B493A
:1047B000D2B28A5C9340284A934220DC4022A35222
:1047C0000023482123866033E25A605A131C824238
:1047D00000D9031C4A209BB25B082352618E4A0019
:1047E00092B2934200D2225248230022E152223355
:1047F000E252200003F050FA0127237D3FE6184BD8
:10480000DCE70C221549D2B28A5C9340124A9342EB
:10481000D4DDF4E713480EF04BFA13480EF048FAD3
:1048200012480EF045FA12480EF042FA11480EF006
:104830003FFA11480EF03CFA10480EF039FA1048D1
:104840000EF036FA0F480EF033FA0F480EF030FA39
:104850000E480EF02DFAC046FE7F0000F07C0110DD
:10486000FF7F0000B47901100C7A0110E07901108B
:10487000FC7A011038790110A47A01102C7B011008
:10488000547B0110D07A01106C7A0110387A011033
:1048900070B5041E16D06068256800280CD0FFF79C
:1048A000A9F921000420FEF7DBFD002D0AD02C0021
:1048B000606825680028F2D121000420FEF7D0FDB1
:1048C000002DF4D170BDC04610B5041E08D040685C
:1048D000002801D0FFF78EF921000420FEF7C0FD6B
:1048E00010BDC04670B5051E0DD00420FEF79AFD20
:1048F000041E06D01022290010F0E4F86068FFF7CB
:104900008FF9200070BD01480EF0D2F97C7B0110B8
:1049100010B5002806D0037D012B03D90A2B01D046
:10492000FFF74CFC10BDC04610B50C1E47D0002848
:1049300048D003688B4204D12FE0DA68A24224D029
:104940001300002BF9D10023E360237D002B0FD14E
:10495000638BDA0729D4E36E002B36D1236F002B4B
:1049600036D1636F002B36D100232375E38210BD4F
:104970000A2BF0D0012BF7D02000FFF71FFC237D7E
:104980000A2BE8D0012BEFD0E2E7E268DA600023DF
:10499000E360237D002BEBD1DAE7CB6803600023D3
:1049A000E360237D002BE3D1D2E70222134363832C
:1049B000200002F03BFF237D012BD5D0CBE7074839
:1049C0000EF076F906480EF073F906480EF070F90D
:1049D00005480EF06DF905480EF06AF9987B011054
:1049E000B47B0110D47B0110EC7B0110087C01101A
:1049F000F0B54E464546DE465746E0B505000E008A
:104A000087B0002867D0037D012B00D1B3E00A2BCB
:104A100000D1A1E0026D9246426A0592902282582E
:104A2000934602699146002B63D1C38A00269846BB
:104A3000002B67D0534A1368834257D1C368136071
:104A400000232C6F98460026EB60002C5DD1EC6EA5
:104A5000002C16D06068276800280CD0FFF7CAF831
:104A600021000420FEF7FCFC002F0AD03C00606807
:104A700027680028F2D121000420FEF7F1FC002F66
:104A8000F4D16C6F002C16D06068276800280CD019
:104A9000FFF7B0F821000420FEF7E2FC002F0AD057
:104AA0003C00606827680028F2D121000420FEF74E
:104AB000D7FC002FF4D1002E41D12B7D012B5DD0EE
:104AC00029000220FEF7CCFC5B46002B03D00D2111
:104AD00048464942D84707B0F0BCBB46B246A94653
:104AE000A046F0BDDA68AA4242D01300002BF9D1EB
:104AF000A6E7C38A010024489846FFF715FF012264
:104B0000224B1A702C6F002CA1D0606827680028F7
:104B10000CD0FFF76FF821000420FEF7A1FC002F56
:104B200095D03C00606827680028F2D1210004205D
:104B3000FEF796FC002F00D189E73C00F2E72B8BB3
:104B400051460293434601932B1D009328002B00EE
:104B5000059A02F035FDB0E701000D48FFF7E4FECD
:104B60002B7D012B0AD029000220FEF779FCB2E749
:104B7000EA68DA6064E707480EF09AF806480EF033
:104B800097F8C0463CD9002038D90020A5D900208C
:104B90004CD90020207C01103879011010B501217A
:104BA000FFF726FF10BDC046F0B5C646050000B5AC
:104BB0000220FEF737FC041E2AD0A4220021200088
:104BC0000FF07AFF6423604A6575E2525F4B402222
:104BD000A362FF23E372F93BA352E3875C4B5D4A78
:104BE00023635D4B1B6823625C4B1B78A3775C4B94
:104BF000A3648423E2505B4A1033E2505A4A0433E0
:104C0000E25009220433E250200080BCB846F0BDD7
:104C10000827564E3468002C0AD02000438BE468E5
:104C20001F42F8D0BB434383FFF79CFA002CF4D11A
:104C30004F4B1868002812D0474B1C68036AE11AD2
:104C4000C368002B08D01A6AA21A914201D8110039
:104C50001800DB68002BF6D10121FFF7C9FE022006
:104C6000FEF7E0FB041EA8D13368002B16D03A4AA9
:104C70000021106802E0DB68002B09D01A7D092AA8
:104C8000F9D11A6A821A9142F5D811001C00F2E794
:104C9000002C03D000212000FFF7AAFE0220FEF71F
:104CA000C1FB041E00D088E73368002B16D02A4AC7
:104CB0000021106802E0DB68002B09D01A7D082A69
:104CC000F9D11A6A821A8A42F5D311001C00F2E760
:104CD000002C03D000212000FFF78AFE0220FEF7FF
:104CE000A1FB041E00D068E76BB2002B2ADB002D6D
:104CF00021D02A003368013AD2B2002B1BD01649CA
:104D00000F680021884607E0186A3A1A90461C008E
:104D10000A00DB68002B08D0597D8A42F4D8F8D10C
:104D2000186A3E1A4645F4D3EFE7002C03D0012160
:104D30002000FFF75DFE0220FEF774FB041E00D189
:104D400062E73AE77F22D5E7A02D0000A02DA02D35
:104D5000FFFF1802014F001048D90020A7D90020FA
:104D60000100A02D00DD6D00F824010038D90020DD
:104D70004CD9002030B5040085B0002800D19FE058
:104D8000037D002903D0042B0DD0072B0BD0012B62
:104D900000D169E0022B4ED0002B3BD02000FFF762
:104DA000E1F905B030BDA26F002A54D0638BDB0659
:104DB00000D488E0238B20000293E38A626A019387
:104DC000231D0093216D230002F0FAFB237D012BAC
:104DD00004D90A2B02D02000FFF7F0F93D4A1368EE
:104DE000A34214D1E368136000230122E3603A4B2D
:104DF0001A703A4B1B68A34232D0237D012B24D179
:104E000037480DF055FFDA68A24250D01300002B4E
:104E1000F9D1E9E7E38A002B17D0324A1368A3429D
:104E200004D14AE0DA68A24244D01300002BF9D141
:104E30000023E36009E021002648FFF775FD012209
:104E4000254B1A70237D012BDAD002202100FEF7BA
:104E500007FB0020A5E7244A218D9142A6D196E7C1
:104E600001F08CFF00209CE7204A002110000C304C
:104E700053681B68002B05D0DD6FAC4212D0DB6895
:104E8000002BF9D104329042F2D121001848FFF7EB
:104E90004BFD237D012B19D003202100FEF7E0FA02
:104EA00000207EE7D967DB68002BE5D1EAE7E268FE
:104EB000DA6099E7E268DA60BAE7E3681360B7E7B7
:104EC0000C480DF0F5FE0C480DF0F2FE0B480DF00D
:104ED000EFFEC04638D90020A5D9002040D90020D7
:104EE000387901103CD90020A02D0000007D011070
:104EF00044D90020547C0110747C0110907C011076
:104F0000F0B5C6460C00150000B500294ED0002AA9
:104F10002AD00B7D012B4CD01389098D284ACB1840
:104F20009BB293421CD913009046676A668E254A4D
:104F3000E06A2385B844311C964200D9111C4246D0
:104F400089B20918511A18D5C01B13D480235B02EB
:104F5000984231D260852800FEF74CFE002006E022
:104F60009942E0D81A00DFE70020002B12D080BC65
:104F7000B846F0BD00236385EDE76385124B121A36
:104F80009A42E8D90222638B20001343638302F024
:104F90004DFCE0E70B7D012B03D010224B8B13431C
:104FA0004B8301212000FFF7E5FEE0E7102040429F
:104FB000DDE706480DF07CFE05480DF079FEC046A1
:104FC000A02D0000D0160000670B00008C790110A6
:104FD00070790110F8B5041E32D00023856F6F7B05
:104FE00083678433C658002E0CD0010000232A00AA
:104FF0000069B04700280BD00D301ED00520A567F2
:105000004042F8BD2989FFF789F92800FEF7F2FD33
:10501000BB0610D5238D0C4A934201D00133238562
:105020008423E558002D06D00023002221002069AA
:10503000A8470D3001D00020E3E70D204042E0E713
:1050400010204042DDE7C046A02D0000F0B54F46DD
:105050004646D646C0B5204D204F2B7801332B70E5
:105060001F4B9946012398464B461C68002C1BD0C9
:1050700008262B78A27F9A421BD04246A377638BE7
:105080001A421ED11E4216D1E3689A46A36F002B26
:1050900007D0002320003B70FFF79CFF3B78002BDC
:1050A000E2D15446002CE4D1E0BCBA46B146A84651
:1050B000F0BDE468F6E7B34320006383FFF752F8DE
:1050C000E2E7022213436383200002F0AFFB0322D6
:1050D000638B93436383D5E7A7D90020A5D900202C
:1050E00038D9002010B5FFF7B1FF054A1378013316
:1050F000DBB21370DB0700D410BDFFF75BF9FBE7F1
:10510000A6D9002010B5002807D0054B054A106825
:105110001A6894466044186010BD03480DF0C8FD3D
:105120006411002048D90020AC7C011010B5002A81
:1051300012D000290AD00B8E002B07D0282B06D9BD
:10514000283B1A1C9BB2834203D890B210BD0020AA
:10515000FCE7021C90B2F9E701480DF0A9FDC0463A
:10516000C87C011070B504000D00002802D003684F
:10517000002B00D170BD1F4A1068002805D00268BE
:10518000934226D0C0680028F9D11B4B186800282C
:1051900006D0236802689A4224D0C0680028F9D15A
:1051A000002DE7D02B68002BE4D0144B1A68002A9E
:1051B000E0D023681168994205D0D268002AD9D07E
:1051C00011689942F9D12B681360D268002AF0D196
:1051D000D0E7C6680121FFF70BFC002ED5D03000C8
:1051E0002368CCE7C6680121FFF702FC002ED7D068
:1051F0003000CEE738D900203CD9002044D9002027
:1052000070B5446F0600002C18D06068256800282F
:105210000CD0FEF7EFFC21000420FEF721F9002D51
:105220000AD02C00606825680028F2D121000420F3
:10523000FEF716F9002DF4D10023736770BDC04648
:10524000F8B5DE4657464E464546E0B5002800D143
:10525000ABE0574B1D88002D46D0564B9946002396
:105260004A461380544B00221E68544B1F881B78FB
:1052700098464146C943524B8A461B6851499C4651
:105280008B460023002E1FD0140014346444954232
:1052900000D87EE0531C9BB297422BD85146C918C8
:1052A000C9B2715C012928D002292AD0002919D05D
:1052B0009F4252D963441B7D012B00D871E0D21864
:1052C000012392B2002EDFD11100143161449542C6
:1052D0005FD90C78531C9BB2012C50D0022C4BD0C0
:1052E000002CE7D14A461380F0BCBB46B246A94623
:1052F000A046F8BD21780129D6D11A000134012336
:10530000C5E7911C89B29F4222D963441B7D042BBF
:1053100044D14B1CAB4241DAD31C9BB2002E32D09D
:105320008F421FD84446091BC9B2715C043209027E
:1053300092B29F421DD844461B1BDBB2F35C0B4369
:10534000591E89B2594500D91F4B43860123B9E73D
:1053500044461B1BDBB2F35CD9E741465B1ADBB268
:10536000F35CA9E76144097D0432090292B29F42CD
:10537000E1D963441B7DE2E7911C89B2C5E71A00BD
:1053800001310123A3E76144097D0432090292B28D
:10539000EFE7002BA8D04B461A80A5E74B461980B3
:1053A000A2E74B4602321A809EE708480DF080FCC7
:1053B0008ED900208AD9002054D900208CD9002011
:1053C00050D90020B3050000B4050000187D01107D
:1053D000F0B5D6464F46464605000C00C0B500283D
:1053E0005FD0C368587B1A7B00021043FDF70CFBAB
:1053F000C30751D401239A46FE3398462A4E336898
:1054000099462B894B449C46E36858791A799979D7
:1054100000021043090408436146DA791206024388
:1054200020898018081A2DD4587B1A7B000210435B
:10543000FDF7EAFA5346034207D127682000FFF739
:1054400043FA002F17D03C00D9E7EB6801201F7BFF
:105450005B7B1B021F43FDF7D7FA41463843EA68DE
:1054600083B2276808401B0A107353732000FFF7AC
:105470002BFA002FE7D100242C60E0BCBA46B146DD
:10548000A846F0BD531AF7D54B46D21A91B26868B8
:105490002981FEF7E5FAEFE72000FFF7F9F900248C
:1054A000EAE702480DF004FC14D80020347D011016
:1054B000F0B55746DE464E464546E0B583B0070098
:1054C0000C1E019246D02D4B9B46662398462C4BD2
:1054D00099465B46E1681D684B7908798A791B0219
:1054E0000343C8791204134300061843FDF790FAEA
:1054F000238906009A46E368AD1B587B1A7B00029D
:105500001043FDF781FA5346ED1A03231840431E5A
:1055100098412D1A2AD460682568FEF777FB434628
:10552000FB5A984227D842461B1ABB524A46238947
:10553000128820009B184A461380FFF7C5F943469E
:10554000FB5A002B0ED0002D01D02C00C1E7019B8F
:10555000002B0DD0002003B0F0BCBB46B246A946DC
:10556000A046F0BD002DF5D02C00B2E72000F2E7F8
:1055700004480DF09DFB04480DF09AFB181900201B
:1055800088D90020847D01105C7D0110F0B5DE46D5
:1055900057464E464546E0B5040083B0002801D189
:1055A00000F0C3FC017D032901D800F0C1FCAB4B26
:1055B0001B78DB0654D4AA4EAA4D33882A689C4631
:1055C0006346002B00D194E0217D062900D990E0AC
:1055D000636A991A012900D554E1D84367468018B7
:1055E000F84200D54EE1A04F7868002801D100F0C4
:1055F000D6FC9E4B994201D900F0CEFC028989B2BB
:105600008A4201D200F0C5FC3B89521A5B1A3B81E9
:1056100093B2984643898B420BD20022944642466D
:10562000C91A634602814381006889B243898B426B
:10563000F6D3FEF783FA636AFA68190A5171190200
:10564000090E9171190E2B601371D171228DD21830
:10565000DB43DA4200D454E2200002F0BDF850E00F
:105660006023C35A7F4D9946836D2A689A46436DDD
:10567000981A15D4934200D151E17D4B18680093DC
:105680004B46D346824520D17A4B1E68B37B9C465D
:10569000F37B66461B02334399450CD34B4614E01B
:1056A000734B18680093734B1E68B37B9C46F37B67
:1056B00066461B0233436026A3530236A75B9F4214
:1056C00000D2A35383466265A065666CB046361A65
:1056D00023D4634E3788BC46002F00D091E0494662
:1056E0005B4451448B4200D1AAE1636B002B00D094
:1056F0008BE0636AD11A0BD4D243218DCB18D342ED
:1057000006D403B0F0BCBB46B246A946A046F0BDE5
:105710000222638B13436383F3E74346DB43C342B5
:1057200000D504E1236D1B1A00D500E104231E00FF
:10573000628B1640134200D09BE14633E35A9C46ED
:105740004823E15A3C27E35FE78FDB10B946402747
:105750004B44E35343460237C31AE6539BB260649B
:105760008C4500D89BE1802000010240504242411C
:10577000608E01324243101C92B29A4200D9181C2A
:10578000081880B2884200D293E14822A052E26E0B
:10579000216F2000FFF78CFEE16E020020672000E1
:1057A000FFF786FE216FE0664B424B415B4223864A
:1057B00000232377002800D180E164222E4EA35AD3
:1057C00036889B19A352638B1A0500D4B2E00029D6
:1057D00000D1CCE2C9684A7908798B791202024378
:1057E000C8791B041A4300061043FDF711F9E36C56
:1057F000C01A00D59EE0638B204A194E1340638384
:1058000099E0636B002B00D1DFE6A16B081A00D48E
:10581000D6E69BB29A461A493C23E05E0988C71037
:10582000BFB2CB1B884651465B1A9BB2181800B218
:1058300019B2A087002903DA4346FB1A53449BB2EE
:105840003E27E15FC0108F10C91B5B1840219BB23F
:10585000E3871B18635200236363B1E69CD90020E1
:1058600090D9002014D80020642E0020FEFF0000F4
:105870001819002050D9002088D90020FFF7FFFF19
:1058800048D90020D11A00D5D5E0D14389464846F1
:10589000218DC918C14200D5DEE6934200D12FE127
:1058A0000023676F9846531E002F00D164E2B44670
:1058B00016004246A84601940093F96848790B798E
:1058C000000203439A4650468B791B040343C87970
:1058D00000060343B34200D1F3E0002A33D0D0687E
:1058E0000479A34644792402A2465C4655462C43DB
:1058F000A2468479C0792404A34654465D46000636
:105900002C432043009C201A03D44846C34200D4B1
:105910003FE238683A00002823D00700CDE7B94BB2
:105920001868009353461B1A00D4A9E6BBE6200072
:1059300001F052FFB44E636B002B00D075E033884A
:105940002A689C463CE6F21AE3D5B048019CFEF773
:10595000C9FF002800D17FE660673900FFF738FDF6
:105960007AE6320045466646019C9B1A00D473E6EF
:10597000487B0B7B00021843FDF746F8C30700D5B0
:105980006AE6A248FEF7AEFF3860002800D163E661
:10599000F8682A68437901791B020B43817909046D
:1059A0000B43C179090619433B895B18D31A00D50B
:1059B000C1E2636A3188591A238DC918891A00D443
:1059C0004AE63B68DB68587B1A7B00021043FDF710
:1059D0001BF8C30700D5BBE23A68218D2B685068DD
:1059E000C91A636A9C46614489B21181FEF738F88E
:1059F0003B681F89DB68587B1A7B00021043FDF768
:105A000003F80300032003405A1E9341616AFB1808
:105A10008C462A689BB233809B18228D6244934245
:105A200000D119E67A480DF043F9009A10683288DF
:105A300094462A68E9E60222638B134363830BE6EC
:105A40003021635E002B00DA4FE6804500D04CE643
:105A50004321635CFF2B00D1F2E10133DBB26354DD
:105A6000032B00D9ECE100D03FE6200001F076FDE9
:105A700061E79A434A2362830022E15A023BE152E2
:105A80002233E2523C26A35FE68FDB109B194026AF
:105A9000A35343460236C31AA2539BB260646A20E2
:105AA000225AD3189BB29A421ED88B421DD223523F
:105AB0006DE6012248235242E25268E66833E05222
:105AC0007BE6524890463B890289019C9A4200D865
:105AD000C2E5FEF707FF002800D1BDE54346002BD5
